:020000040000FA
:04000000FEEF3FF0E0
:1008000000000F0EC16E070EB46EF19E93829384AA
:1008100094948B9481B40FEF04F011EF04F00AEF7D
:1008200004F053EC04F081A418EF04F01AEF04F084
:1008300013EF04F0056A3DEF04F070EC04F081B2B0
:1008400024EF04F026EF04F028EF04F0010E056E0B
:100850000550D8B42EEF04F030EF04F032EF04F07E
:1008600045EF04F08BEC04F081B239EF04F03BEF7C
:1008700004F03DEF04F0010E056E0550D8B443EFCF
:1008800004F045EF04F01DEF04F053EC04F081A2F6
:100890004CEF04F04EEF04F047EF04F08B940AEFB6
:1008A00004F0FEEF3FF0000E036E000E026E9C0E91
:1008B000016ED70EE82EFED7012EFCD70000024AAB
:1008C000032A03BE6DEF04F0035009E1050E025C3C
:1008D000D8A06DEF04F06FEF04F057EF04F01200B2
:1008E000000E046E000E036E8B84A6EC04F08B9455
:1008F000A6EC04F0034A042A04BE88EF04F0D00EEC
:10090000035C070E0458D8A088EF04F08AEF04F0C7
:1009100074EF04F01200000E046E000E036E8B8460
:10092000BEEC04F08B94BEEC04F0034A042A04BE2F
:10093000A3EF04F0B00E035C040E0458D8A0A3EF9C
:1009400004F0A5EF04F08FEF04F01200000E026E29
:10095000000E016E140EE82EFED7014A022A02BED6
:10096000BBEF04F0025009E1180E015CD8A0BBEF08
:1009700004F0BDEF04F0AAEF04F01200000E026EC6
:10098000000E016E140EE82EFED7014A022A02BEA6
:10099000D3EF04F0025009E12A0E015CD8A0D3EF96
:1009A00004F0D5EF04F0C2EF04F01200000101EFF3
:0209B00004F051
:047FFC00D6EF04F0C8
:020000040020DA
:08000000FFFFFFFFFFFFFFFF00
:020000040030CA
:0E000000240E3E1EFF8181FF0FC00FE00F4057
:00000001FF
