:020000040000FA
:04000000FEEF3FF0E0
:100800000054656D702E204C4D33353A2000253351
:10081000752E25750043000092800E0EC16E960E57
:10082000C06E010EC26E949294948B828B94956AE2
:100830009690969296943B0E5CEC05F019EC09F0BC
:100840000009D8A426EF04F028EF04F01EEF04F00E
:10085000010EFAEC08F02CEC09F0010E026E2AEC05
:1008600008F034EC09F0C4EC08F001C04DF002C00F
:100870004EF04DC001F04EC002F0036A046A880ECB
:10088000056E130E066E000E076E000E086E94ECD9
:1008900007F001C00DF002C00EF003C00FF004C05D
:1008A00010F0FF0E116E030E126E000E136E000E8E
:1008B000146E71EC06F00DC053F00EC054F019EC3C
:1008C00009F00009D8A467EF04F069EF04F05FEFC6
:1008D00004F0400ED9EC08F053C03BF054C03CF09B
:1008E000430E3D6EFBEC07F00C0E026E2AEC08F096
:1008F000DF0E0AEC09F0150E026E2AEC08F0400E2D
:10090000535C010E5458D8B088EF04F08AEF04F01D
:100910008EEF04F08B828B949BEF04F0910E535C6E
:10092000010E5458D8A097EF04F099EF04F09BEF14
:1009300004F08B928B84480ED9EC08F0000E0AEC80
:1009400009F0000E506E000E4F6E000E526E000E3B
:10095000516E9C0E426ED70EE82EFED7422EFCD76B
:100960000000514A522A52BEBFEF04F0525009E132
:10097000050E515CD8A0BFEF04F0C1EF04F0A9EF61
:1009800004F04F4A502A50BECFEF04F0505009E116
:10099000060E4F5CD8A0CFEF04F0D1EF04F0A5EF26
:1009A00004F033EF04F0FEEF3FF01E50D96EDA6A28
:1009B000DFCFF6FF080EF76E0800F550250AD8A421
:1009C000E4EF04F0E6EF04F04AEF05F01E50D96EB4
:1009D000DA6ADF2A000E566E000E556E55C059F0C9
:1009E000576858681EC001F01FC002F0C3EC06F043
:1009F00001C055F002C056F056BE03EF05F001EFFE
:100A000005F008EF05F05980556C561ED8B0562AEF
:100A10001E50D96EDA6ADF50246E24C0F6FF080E2D
:100A2000F76E0800F550750AD8A419EF05F01BEF12
:100A300005F044EF05F01F50D96EDA6A020EDF268A
:100A4000DF5CD96EDA6ADECF20F0DECF21F01E50F7
:100A5000D96EDA6A2428DF6E38EF05F01DC015F074
:100A600020C016F021C017F0C2EC05F05BEF05F0D6
:100A700024C0F6FF080EF76E0800F550750AD8B4CA
:100A80002EEF05F044EF05F01E50D96EDA6ADF2A2A
:100A90005BEF05F01E50D96EDA6ADFCFF6FF080E65
:100AA000F76E0800F550016E026A1DC003F01CECE1
:100AB00006F044EF05F01200836A956896949690CC
:100AC00096928D948D908D922CEC09F0956A380E4B
:100AD000836E8D8234EC09F08D9224EC09F0380E8F
:100AE000836E8D8234EC09F08D9224EC09F0380E7F
:100AF000836E8D8234EC09F08D92956819EC09F0C3
:100B00000009D8A486EF05F088EF05F07EEF05F028
:100B1000080EFAEC08F019EC09F00009D8A493EFDC
:100B200005F095EF05F08BEF05F00F0EFAEC08F0ED
:100B300019EC09F00009D8A4A0EF05F0A2EF05F028
:100B400098EF05F0010EFAEC08F034EC09F019EC1E
:100B500009F00009D8A4AFEF05F0B1EF05F0A7EF59
:100B600005F0130EFAEC08F019EC09F00009D8A40E
:100B7000BCEF05F0BEEF05F0B4EF05F0000ED9ECC8
:100B800008F01200010E1A6E55C018F056C019F088
:100B9000000E1C6E1F0E1B6E00017F6BF6EF05F042
:100BA0001B06D8A01C061B50600FD96EDA6A16C04F
:100BB00001F017C002F0000E046E0A0E036EC9ECBD
:100BC00007F00150300FDF6E1A6A1806D8A0190618
:100BD00016C001F017C002F0000E046E0A0E036E7C
:100BE0005AEC07F001C016F002C017F01B501C10A1
:100BF000D8B4FDEF05F0FFEF05F010EF06F016504A
:100C00001710D8A406EF06F008EF06F0D0EF05F0B5
:100C10001A50D8A40EEF06F010EF06F0D0EF05F052
:100C200015C00EF01B50600F0F6E18C010F019C0E9
:100C300011F015EC07F012000350D8B422EF06F0C3
:100C400024EF06F02CEF06F00350D8A42AEF06F0AC
:100C50002CEF06F031EF06F0015038EC09F070EFA0
:100C600006F00350D96EDA6A090ED926DE50DE107E
:100C7000D8B43DEF06F03FEF06F058EF06F0035012
:100C8000D96EDA6A090ED9260350E16EE26A020EC5
:100C9000E126DE50E65CE650800A086EDE50800AEF
:100CA0000858D8B056EF06F058EF06F070EF06F08F
:100CB0000350D96EDA6A020ED926DF50046E035053
:100CC000D96EDA6ADF500424D96EDA6A01C0DFFF18
:100CD0000350D96EDA6A020ED926DE2A000EDD2212
:100CE0001200000E156E000E166E000E176E000E2E
:100CF000186E1150121013101410D8B482EF06F0B1
:100D000084EF06F0BAEF06F0010E196E8EEF06F0D2
:100D1000D8901136123613361436192A14AE93EFC2
:100D200006F095EF06F088EF06F0D89015361636E7
:100D30001736183611500D5C12500E5813500F58BC
:100D400014501058D8A0A7EF06F0A9EF06F0B2EFA4
:100D500006F011500D5E12500E5A13500F5A1450D7
:100D6000105A1580D8901432133212321132192EC3
:100D700095EF06F015C00DF016C00EF017C00FF07D
:100D800018C010F01200000E076E000E066E015023
:100D9000D96EDA6ADFCFF6FF080EF76E0800F5505D
:100DA0002A0AD8A4D6EF06F0D8EF06F0FDEF06F039
:100DB0000150D96EDA6ADF2A0250D96EDA6A020E61
:100DC000DF26DF5CD96EDA6ADECF06F0DECF07F011
:100DD00010EF07F00A0E0602F3CF03F0F4CF04F091
:100DE0000702F350042605500324066E000E04206B
:100DF000076E0150D96EDA6ADF2A0150D96EDA6ABD
:100E0000DFCFF6FF080EF76E0800F550D00F056E25
:100E1000090E05640EEF07F010EF07F0EAEF06F099
:100E200006C001F007C002F0120059A01AEF07F047
:100E30001CEF07F022EF07F00FC009F00EC00AF018
:100E40008CEC08F011BE29EF07F027EF07F02DEF2B
:100E500007F0000E116E000E106E000E146E000EE4
:100E6000136E3DEF07F0000E026E200E016E0EC0F5
:100E700003F01CEC06F0134A142A1050135C1450B3
:100E8000800A126E1150800A1258D8A04AEF07F05B
:100E90004CEF07F033EF07F059B051EF07F053EF85
:100EA00007F059EF07F00FC009F00EC00AF08CEC04
:100EB00008F01200000E066E000E056E03500410BE
:100EC000D8B465EF07F067EF07F08FEF07F0010E7A
:100ED000076E6FEF07F0D89003360436072A04AE8A
:100EE00074EF07F076EF07F06BEF07F0D890053658
:100EF00006360350015C04500258D8A082EF07F078
:100F000084EF07F089EF07F00350015E0450025AA6
:100F10000580D89004320332072E76EF07F005C023
:100F200001F006C002F01200000E096E000E0A6EFB
:100F3000000E0B6E000E0C6E01A0A1EF07F0A3EFE8
:100F400007F0ABEF07F00550092606500A220750BC
:100F50000B2208500C22D890053606360736083684
:100F6000D8900432033202320132015002100310D1
:100F70000410D8A4BEEF07F0C0EF07F09CEF07F015
:100F800009C001F00AC002F00BC003F00CC004F06D
:100F9000120003500410D8B4D0EF07F0D2EF07F0DE
:100FA000F6EF07F0010E056EDAEF07F0D890033682
:100FB0000436052A04AEDFEF07F0E1EF07F0D6EFC5
:100FC00007F00350015C04500258D8A0EAEF07F084
:100FD000ECEF07F0F0EF07F00350015E0450025A07
:100FE000D89004320332052EE1EF07F001C001F082
:100FF00002C002F012003BC001F03CC002F0000E43
:10100000046E0A0E036E5AEC07F001C03EF002C0F7
:101010003FF03BC001F03CC002F0000E046E0A0E2F
:10102000036EC9EC07F001C040F002C041F03DC0C2
:1010300029F00E0E2A6E3EC02BF03FC02CF040C0AF
:101040002DF041C02EF0AAEC08F03DC002F06DEC8E
:1010500008F012003FEF08F019EC09F00009D8A4DD
:1010600034EF08F036EF08F02CEF08F002C0F6FF7E
:10107000080EF76E0800F5500AEC09F0022A02C0CB
:10108000F6FF080EF76E0800F5500009D8A44BEFE4
:1010900008F04DEF08F02CEF08F0120026C028F001
:1010A0005AEF08F025C01DF0280E1E6E27C01FF055
:1010B000D5EC04F028C0F6FF080EF76E0800F550D6
:1010C0000009D8A466EF08F068EF08F052EF08F0C6
:1010D000000E266E000E256E120080EF08F019EC4F
:1010E00009F00009D8A477EF08F079EF08F06FEF66
:1010F00008F00250D96EDA6ADF500AEC09F0022AD1
:101100000250D96EDA6ADF50D8A489EF08F08BEF6D
:1011100008F06FEF08F01200000E0D6E000E0C6E5E
:101120009BEF08F00BC001F0026A0AC003F01CEC50
:1011300006F00C4A0D2A09500C24D96EDA6ADF50E9
:101140000B6E0B50D8A4A7EF08F0A9EF08F092EFB0
:1011500008F012002B0E2F6E29C030F0000E336EF7
:10116000000E326E000E3A6E000E396E300E256E95
:101170002AC026F02F0E276E4EEC08F0295032249C
:10118000D96EDA6ADF6A1200500EE82EFED7C282EC
:10119000C2B2CDEF08F0CFEF08F0C8EF08F0C450AE
:1011A000046E036AC3500324016E000E0420026E15
:1011B0001200016E956A01508009836E8D948D90A6
:1011C00034EC09F08D8234EC09F08D9234EC09F0A6
:1011D0009568120000EE60F0200EEE6AE806FDE170
:1011E000596A586A576A566A556A000EF86E0001C5
:1011F0000CEF04F0016E956A01C083FF8D948D9011
:1012000034EC09F08D8234EC09F08D9234EC09F065
:1012100095681200016E956A01C083FF8D808D94E0
:1012200034EC09F08D8234EC09F08D928D90956844
:1012300012008D848D9034EC09F08D8234EC09F02D
:101240008D928D94000E12002F0E016EC00EE82EAE
:10125000FED7012EFCD712007D0E016EAC0EE82EDB
:10126000FED7012EFCD71200280EE82EFED7120062
:0212700012006A
:047FFC00EAEF08F0B0
:020000040020DA
:08000000FFFFFFFFFFFFFFFF00
:020000040030CA
:0E000000240E3E1EFF8181FF0FC00FE00F4057
:00000001FF
