:020000040000FA
:0400000007EF00F016
:0A000800048201ED04F05BEF04F048
:1008000000000600A1A207EF04F009EF04F041EF99
:1008100004F0A1921D0EB36E4C0EB26E022A630E4E
:10082000026415EF04F017EF04F028EF04F0026AF9
:100830008CA21DEF04F021EF04F0036A032A22EFDB
:1008400004F0036A03468C500318FD0B03188C6EEA
:10085000012A090E01642FEF04F031EF04F041EF9B
:1008600004F0016A8CA037EF04F03BEF04F0036A58
:10087000032A3CEF04F0036A8C500318FE0B0318A4
:100880008C6E049211000F0EC16E070EB46E956A45
:100890008C6AB192300EB112B18E1D0EB36E4C0E39
:1008A000B26EA192A082D08EF28EF28CB18057EF00
:1008B00004F007EF00F0026A016A0490049200015C
:0408C00043EF04F00E
:020000040020DA
:08000000FFFFFFFFFFFFFFFF00
:020000040030CA
:0E000000240E3E1EFF8181FF0FC00FE00F4057
:00000001FF
