:020000040000FA
:04000000FEEF3FF0E0
:10080000003F065B4F666D7D077F6F777C395E79B1
:1008100071000FC001F010C002F0030E046EE80E6C
:10082000036EA2EC04F001C012F002C013F0000E3F
:10083000046E640E036E0FC001F010C002F0A2EC53
:1008400004F001C009F002C00AF0000E0C6E0A0E9E
:100850000B6E61EC05F009C014F00AC015F0000E33
:10086000046E0A0E036E0FC001F010C002F0A2EC7D
:1008700004F001C009F002C00AF0000E0C6E0A0E6E
:100880000B6E61EC05F009C016F00AC017F00FC03E
:1008900009F010C00AF0000E0C6E0A0E0B6E61EC2F
:1008A00005F009C018F00AC019F08D848D90899464
:1008B000899A1250010F116E11C0F6FF0800F5CF92
:1008C0008CFF200E116E2A0EE82EFED7112EFCD7BB
:1008D0008D948D808994899A1450010F116E11C0E6
:1008E000F6FF0800F5CF8CFF200E116E2A0EE82EC1
:1008F000FED7112EFCD78D948D908984899A16503D
:10090000010F116E11C0F6FF0800F5CF8CFF200E0D
:10091000116E2A0EE82EFED7112EFCD78D948D90E5
:100920008994898A1850010F116E11C0F6FF0800D2
:10093000F5CF8CFF200E116E2A0EE82EFED7112E59
:10094000FCD71200066A04BEAAEF04F0A8EF04F078
:10095000B0EF04F0036C041ED8B0042A010E066E3A
:1009600002BEB7EF04F0B5EF04F0BDEF04F0016C88
:10097000021ED8B0022A010E061A000E086E000EE2
:10098000076E03500410D8B4C8EF04F0CAEF04F0A7
:10099000F2EF04F0010E056ED2EF04F0D8900336AA
:1009A0000436052A04AED7EF04F0D9EF04F0CEEFF9
:1009B00004F0D890073608360350015C0450025802
:1009C000D8A0E5EF04F0E7EF04F0ECEF04F00350FB
:1009D000015E0450025A0780D89004320332052E7B
:1009E000D9EF04F00650D8B4F8EF04F0FAEF04F0B1
:1009F000FEEF04F0076C081ED8B0082A07C001F00B
:100A000008C002F012000F0EC16E070EB46EF19E08
:100A1000956A9294929A96909694938093828D84FC
:100A20008D908994899A000E1B6E000E1A6E1AC062
:100A30000FF01BC010F009EC04F081B022EF05F0BC
:100A400024EF05F03DEF05F01BBE32EF05F00F0E71
:100A50001A5C270E1B58D8B030EF05F032EF05F0C6
:100A60003DEF05F01A4A1B2A81A039EF05F03BEF54
:100A700005F034EF05F0B8EC05F081B242EF05F077
:100A800044EF05F017EF05F01BBE4FEF05F01B50CC
:100A900008E11A04D8A04FEF05F051EF05F017EF69
:100AA00005F01A06D8A01B0681A259EF05F05BEFEE
:100AB00005F054EF05F0B8EC05F017EF05F0FEEF88
:100AC0003FF00E6A0ABE69EF05F067EF05F06FEFC1
:100AD00005F0096C0A1ED8B00A2A010E0E6E0CBE73
:100AE00076EF05F074EF05F07AEF05F00B6C0C1E55
:100AF000D8B00C2A0B500C10D8B481EF05F083EF5E
:100B000005F0A7EF05F0010E0D6E8BEF05F0D89004
:100B10000B360C360D2A0CAE90EF05F092EF05F077
:100B200087EF05F00B50095C0C500A58D8A09BEFDA
:100B300005F09DEF05F0A1EF05F00B50095E0C509C
:100B40000A5AD8900C320B320D2E92EF05F00E504F
:100B5000D8B4ADEF05F0AFEF05F0B3EF05F0096CD9
:100B60000A1ED8B00A2A09C009F00AC00AF0120009
:100B7000000E036E000E026E9C0E016ED70EE82E64
:100B8000FED7012EFCD70000024A032A03BED2EF93
:100B900005F0035009E10A0E025CD8A0D2EF05F07F
:100BA000D4EF05F0BCEF05F01200000EF86E080E51
:080BB000F76E000103EF05F0F0
:047FFC00D5EF05F0C8
:020000040020DA
:08000000FFFFFFFFFFFFFFFF00
:020000040030CA
:0E000000240E3E1EFF8181FF0FC00FE00F4057
:00000001FF
