:04000000A1EF3FF03D
:107F42000001C8EF3FF0C28200D0C2B2FED7C3CF59
:107F520001F0C4CF02F01200000E036E000E026E9A
:107F620003BE08D0035012E1050E025CD8B00ED059
:107F720001D00CD09C0E016ED70EE82EFED7012E3A
:107F8200FCD700F0024A032AEBD700D012000E0EF3
:107F9200C16EAE0EC06E010EC26EF19E000E956EE7
:107FA2008C6800D0A4EC3FF001C007F002C008F0DA
:107FB20007C004F008C005F0070E066ED89005321F
:107FC2000432062EFBD704500A6E080E0A6403D050
:107FD200080E0A6E00D00AC004F0010E056E042AD3
:107FE20002D0D8900536042EFCD70504096E09503C
:0E7FF200FF0A8C6EADEC3FF0D5D700EF00F02B
:020000040020DA
:08000000FFFFFFFFFFFFFFFF00
:020000040030CA
:0E000000240E3E1EFF8181FF0FC00FE00F4057
:00000001FF
