:020000040000FA
:040000000EEF00F00F
:020004000000FA
:020006001000E8
:04000800E6EF00F02F
:0400180003EF00F002
:04001C00720ED36E1F
:100020000F0EC16E938094809482948496909290E7
:100030009292929492969298959095929594959684
:1000400089908992899489968D90000E206ED08E29
:10005000CD6ACD88CD8ACE6ACF6ACD809E6A9D80DA
:100060009F80F28CF28EF28C2050000AD8B454EFAC
:1000700000F02050010AD8B463EF00F02050020ACB
:10008000D8B470EF00F02050030AD8B47FEF00F02E
:100090002050040AD8B48FEF00F02050050AD8B4DD
:1000A0009CEF00F034EF00F089928994899889964A
:1000B00089808D9082B05FEF00F034EF00F0010E88
:1000C000206E34EF00F0899089948998899689820E
:1000D0008D9081B034EF00F0020E206E34EF00F00E
:1000E000899089928998899689848D90B0EC00F0E6
:1000F00082A234EF00F0030E206E34EF00F08990FE
:1001000089928998899689848DA0D2EC00F08D809F
:1001100082A434EF00F0040E206E34EF00F08990DA
:1001200089928994899689888DB0D2EC00F08D905F
:10013000050E206E34EF00F0899089928994899899
:1001400089868D90C1EC00F082B234EF00F082A07D
:1001500034EF00F0ACEF00F0000E206E34EF00F052
:10016000F10E8C6ED9EC00F0F40E8C6ED9EC00F030
:10017000F20E8C6ED9EC00F0F80E8C6ED9EC00F01B
:100180001200080E8C6ED9EC00F0020E8C6ED9ECC9
:1001900000F0040E8C6ED9EC00F0010E8C6ED9ECE0
:1001A00000F01200216A2150160AD8A4D3EF00F003
:1001B00012001F0E406E4F0E416E00000000412ED7
:0C01C000DDEF00F0402EDBEF00F012003D
:0401CC00226ED8CFF8
:1001D00023F0E0CF24F09EA0F0EF00F0212A9E90C3
:0C01E00024C0E0FF23C0D8FF2250110013
:020000040030CA
:0100000000FF
:0100010008F6
:0100020000FD
:0100030000FC
:0100050000FA
:010006008079
:0100080000F7
:0100090000F6
:01000A0000F5
:01000B0000F4
:01000C0000F3
:01000D0000F2
:00000001FF
