:020000040000FA
:04000000FEEF3FF0E0
:100800000008020401010402080083B40AEF04F0A6
:100810000CEF04F013EF04F083A611EF04F013EFD4
:1008200004F021EF04F083B018EF04F01AEF04F0A5
:100830002FEF04F083B21FEF04F021EF04F02FEF4D
:1008400004F00150D96EDA6ADE6ADD6A0150D96EB1
:10085000DA6A020ED926DE6ADD6AE3EF04F083A0CD
:1008600034EF04F038EF04F0026A022A39EF04F0A2
:10087000026A83A23EEF04F042EF04F0036A032A07
:1008800043EF04F0036AD8900334046E83A64BEF61
:1008900004F04FEF04F0056A052A50EF04F0056AF2
:1008A000D8900536D890053683A459EF04F05DEF53
:1008B00004F0066A062A5EEF04F0066AD89006364F
:1008C000D8900636D8900634051004100210076E32
:1008D000C0EF04F00150D96EDA6ADE6ADD6A0150B9
:1008E000D96EDA6A020ED926010EDE6E000EDD6EBA
:1008F000E3EF04F00150D96EDA6ADE6ADD6A015076
:10090000D96EDA6A020ED926020EDE6E000EDD6E98
:10091000E3EF04F00150D96EDA6A010EDE6E000ECC
:10092000DD6E26EF04F00150D96EDA6A020EDE6E3B
:10093000000EDD6E26EF04F00150D96EDA6A020E69
:10094000DE6E000EDD6E7FEF04F00150D96EDA6AC4
:10095000020EDE6E000EDD6E6FEF04F00150D96EF8
:10096000DA6A010EDE6E000EDD6E7FEF04F00150DC
:10097000D96EDA6A010EDE6E000EDD6E6FEF04F0E6
:100980000750010AD8B46AEF04F0030AD8B47AEF2A
:1009900004F0060AD8B48AEF04F0010AD8B4B7EF1D
:1009A00004F0030AD8B4AEEF04F00E0AD8B493EF03
:1009B00004F0010AD8B4A5EF04F0030AD8B49CEF00
:1009C00004F021EF04F0120056EC07F0000E106E58
:1009D000000E116E000E126E000E136E340E0F6EAE
:1009E000F20EE82EFED70F2EFCD7100E016E05EC8E
:1009F00004F012041310D8A400EF05F002EF05F084
:100A000019EF05F01E50225C2350800A0F6E1F5014
:100A1000800A0F58D8B00FEF05F011EF05F019EF6D
:100A200005F0000E026E010E016EEAEC06F0224A9D
:100A3000232A020E12181310D8A421EF05F023EF79
:100A400005F03BEF05F022501C5C1D50800A0F6E34
:100A50002350800A0F58D8B030EF05F032EF05F080
:100A60003BEF05F0000E026E020E016EEAEC06F09E
:100A70002206D8A0230610041110D8A442EF05F0D6
:100A800044EF05F05BEF05F01850205C2150800A20
:100A90000F6E1950800A0F58D8B051EF05F053EF80
:100AA00005F05BEF05F0000E026E010E016E78ECB2
:100AB00006F0204A212A020E10181110D8A463EF64
:100AC00005F065EF05F07DEF05F020501A5C1B5036
:100AD000800A0F6E2150800A0F58D8B072EF05F0CF
:100AE00074EF05F07DEF05F0000E026E020E016E50
:100AF00078EC06F02006D8A02106340E0F6EF20E18
:100B0000E82EFED70F2EFCD7EEEF04F0FEEF3FF0FD
:100B1000000E1B6E000E1A6E000E196E000E186E7F
:100B2000000E216E000E206E9EEF05F0000E026E8C
:100B3000010E016E78EC06F0184A192A82A8A3EF7C
:100B400005F0A5EF05F096EF05F0000E0B6E000E18
:100B50000A6EBBEF05F0000E026E020E016E78EC1D
:100B600006F01A0E096EF80EE82EFED7092EFCD7F5
:100B700000D00A4A0B2A18500A5C0B50800A096EF2
:100B80001950800A0958D8A0C8EF05F0CAEF05F03F
:100B9000ABEF05F0D5EF05F0000E026E020E016E10
:100BA00078EC06F01A06D8A01B0682AADAEF05F048
:100BB000DCEF05F0CCEF05F01AC00CF01BC00DF017
:100BC0000DBEE5EF05F0E7EF05F0E9EF05F0FBEF0F
:100BD00005F0000E026E010E016E78EC06F01A0EA2
:100BE000096EF80EE82EFED7092EFCD700D00C4A6D
:100BF0000D2AE0EF05F0000E216E000E206E1200AF
:100C0000000E1F6E000E1E6E000E1D6E000E1C6E7E
:100C1000000E236E000E226E16EF06F0000E026E1E
:100C2000010E016EEAEC06F01E4A1F2A82A01BEF9D
:100C300006F01DEF06F00EEF06F0000E0B6E000E34
:100C40000A6E33EF06F0000E026E020E016EEAEC41
:100C500006F01A0E096EF80EE82EFED7092EFCD704
:100C600000D00A4A0B2A1E500A5C0B50800A096EFB
:100C70001F50800A0958D8A040EF06F042EF06F056
:100C800023EF06F04DEF06F0000E026E020E016E2D
:100C9000EAEC06F01C06D8A01D0682A252EF06F070
:100CA00054EF06F044EF06F01CC00CF01DC00DF030
:100CB0000DBE5DEF06F05FEF06F061EF06F073EF3B
:100CC00006F0000E026E010E016EEAEC06F01A0E3E
:100CD000096EF80EE82EFED7092EFCD700D00C4A7C
:100CE0000D2A58EF06F0000E236E000E226E120041
:100CF00001040210D8A47FEF06F081EF06F0AFEFF9
:100D000006F0000E066E000E056E0550050F036E10
:100D100003C0F6FF080EF76E0800F5CF04F0043AA2
:100D2000F00E04168A500F0B04108A6E820E036EAA
:100D3000DE0EE82EFED7032EFCD7054A062A06BE95
:100D4000ABEF06F0065009E1040E055CD8A0ABEF4E
:100D500006F0ADEF06F085EF06F0E9EF06F0020EC3
:100D600001180210D8A4B7EF06F0B9EF06F0E7EFCC
:100D700006F0000E086E000E076E0750010F036E9E
:100D800003C0F6FF080EF76E0800F5CF04F0043A32
:100D9000F00E04168A500F0B04108A6E820E036E3A
:100DA000DE0EE82EFED7032EFCD7074A082A08BE1F
:100DB000E3EF06F0085009E1040E075CD8A0E3EF6A
:100DC00006F0E5EF06F0BDEF06F0E9EF06F00F0ED6
:100DD0008A16120001040210D8A4F1EF06F0F3EF16
:100DE00006F01EEF07F0000E066E000E056E0550B1
:100DF000050F036E03C0F6FF080EF76E0800F5CF6F
:100E000004F08A50F00B04108A6E820E036EDE0E20
:100E1000E82EFED7032EFCD7054A062A06BE1AEF97
:100E200007F0065009E1040E055CD8A01AEF07F0A0
:100E30001CEF07F0F7EF06F055EF07F0020E011870
:100E40000210D8A426EF07F028EF07F053EF07F0C1
:100E5000000E086E000E076E0750010F036E03C0F0
:100E6000F6FF080EF76E0800F5CF04F08A50F00B7D
:100E700004108A6E820E036EDE0EE82EFED7032E5D
:100E8000FCD7074A082A08BE4FEF07F0085009E1CF
:100E9000040E075CD8A04FEF07F051EF07F02CEFDE
:100EA00007F055EF07F0F00E8A1612000F0EC16E14
:100EB000700ED36E936A330E94120F0E9512F80EC5
:100EC0009216898089928994340E0E6EF20EE82E65
:100ED000FED70E2EFCD700EC06F08990898289940B
:100EE000340E0E6EF20EE82EFED70E2EFCD788ECD6
:100EF00005F0898089928994340E0E6EF20EE82EE8
:100F0000FED70E2EFCD7120000EE14F0100EEE6A83
:0E0F1000E806FDE1000EF86E0001E4EF04F0CB
:047FFC0084EF07F017
:020000040020DA
:08000000FFFFFFFFFFFFFFFF00
:020000040030CA
:0E00000000081F1EFF8181FF0FC00FE00F40A0
:00000001FF
