:020000040000FA
:04000000FEEF3FF0E0
:100600000008020401010402080001040210D8A439
:100610000CEF03F00EEF03F043EF03F0050EF66E60
:100620000900F5CF04F00900F5CF05F00900F5CF7A
:1006300006F00A00F5CF07F0000E0D6E000E0C6EEE
:100640000C50040FD96EDA6ADF50036E8A50F00B3B
:1006500003108A6E820E036EDE0EE82EFED7032E86
:10066000FCD70C4A0D2A0DBE3FEF03F00D5009E1F7
:10067000040E0C5CD8A03FEF03F041EF03F020EF35
:1006800003F084EF03F0020E01180210D8A44BEF20
:1006900003F04DEF03F082EF03F0010EF66E090058
:1006A000F5CF08F00900F5CF09F00900F5CF0AF001
:1006B0000A00F5CF0BF0000E0F6E000E0E6E0E50FE
:1006C000080FD96EDA6ADF50036E8A50F00B031000
:1006D0008A6E820E036EDE0EE82EFED7032EFCD746
:1006E0000E4A0F2A0FBE7EEF03F00F5009E1040EF1
:1006F0000E5CD8A07EEF03F080EF03F05FEF03F015
:1007000084EF03F0F00E8A16120083B28AEF03F032
:100710008DEF03F0010E8EEF03F0000E036E83B039
:1007200094EF03F097EF03F0010E98EF03F0000E43
:10073000031AD8B49EEF03F0A0EF03F0B3EF03F079
:1007400083B0A5EF03F0A7EF03F0ADEF03F0000EC9
:10075000026E010E016EB7EF03F0000E026E020E84
:10076000016EB7EF03F0000E026E000E016E120074
:100770000F0EC16EF00E9316030E9512340E106E0E
:10078000F20EE82EFED7102EFCD785EC03F001C048
:1007900011F002C012F011C001F012C002F005EC1D
:1007A00003F0340E106EF20EE82EFED7102EFCD79A
:1007B000BEEF03F0FEEF3FF0000EF86E060EF76E90
:0607C0000001B8EF03F098
:047FFC00DCEF03F0C3
:020000040020DA
:08000000FFFFFFFFFFFFFFFF00
:020000040030CA
:0E000000FF081F1EFF8180FF0FC00FE00F40A2
:00000001FF
