:020000040000FA
:1000000002EF00F0720ED36E0F0EC16E936A9380F2
:100010009382F19E956A946A836A826A806B33EC5C
:1000200000F081B020EF00F0802B8051640AD8B43A
:10003000806B33EC00F081A01BEF00F011EF00F0BB
:1000400081B211EF00F08051D8B42AEF00F08007A0
:100050002CEF00F0630E806F33EC00F081A22EEFE6
:1000600000F011EF00F08051826F836B825109081C
:10007000D8B040EF00F00A0E825F832B36EF00F01D
:10008000825149EC00F0826E835149EC00F0836E9E
:100090001200816F8151D8B43F0C8151010AD8B44C
:1000A000060C8151020AD8B45B0C8151030AD8B402
:1000B0004F0C8151040AD8B4660C8151050AD8B49A
:1000C0006D0C8151060AD8B47D0C8151070AD8B451
:1000D000070C8151080AD8B47F0C8151090AD8B4A1
:0400E0006F0C3F0C56
:0200E40000001A
:020000040030CA
:0100000000FF
:0100010008F6
:0100020000FD
:0100030000FC
:0100050000FA
:010006008079
:0100080000F7
:0100090000F6
:01000A0000F5
:01000B0000F4
:01000C0000F3
:01000D0000F2
:00000001FF
