:040000005BEF00F0C2
:10000800FACF12F0FBCF13F0E9CF14F05DED00F05A
:10001800D8CF01F0E8CF02F0E0CF03F0FACF04F038
:10002800FBCF05F0E9CF06F0EACF07F0E1CF08F003
:10003800E2CF09F0D9CF0AF0DACF0BF0F3CF0CF00A
:10004800F4CF0DF0F6CF0EF0F7CF0FF0F8CF10F099
:10005800F5CF11F0F0928C96000E246E000E236EF0
:10006800000E266E010E256E11C0F5FF10C0F8FFB8
:100078000FC0F7FF0EC0F6FF0DC0F4FF0CC0F3FF72
:100088000BC0DAFF0AC0D9FF09C0E2FF08C0E1FFD0
:1000980007C0EAFF06C0E9FF05C0FBFF04C0FAFF7E
:1000A80003C0E0FF02C0E8FF01C0D8FF100022EF44
:1000B80001F00600EACF15F0E1CF16F0E2CF17F015
:1000C800D9CF18F0DACF19F0F3CF1AF0F4CF1BF02C
:1000D800F6CF1CF0F7CF1DF0F8CF1EF0F5CF1FF0CC
:1000E800F0908C86000E246E010E236E000E266E94
:1000F800000E256E1FC0F5FF1EC0F8FF1DC0F7FFDC
:100108001CC0F6FF1BC0F4FF1AC0F3FF19C0DAFFCA
:1001180018C0D9FF17C0E2FF16C0E1FF15C0EAFFFB
:1001280014C0E9FF13C0FBFF12C0FAFF11000F0E45
:10013800C16E070EB46E93829384000E956ED08EB6
:10014800F090F092F086F088F19AF198F08CF09E99
:10015800F28EF28CF19E8C6800D08C8ED1EC00F07F
:100168008C7ED1EC00F023042410D8A408D08C8015
:10017800ECEC00F08C70ECEC00F08C8A00D02504DC
:100188002610D8A4EAD78C8007EC01F08C7007EC15
:1001980001F08C84E2D75BEF00F0000E226E000EB7
:1001A800216E22BE08D0225012E1320E215CD8B056
:1001B8000ED001D00CD09C0E206ED70EE82EFED7A4
:1001C800202EFCD700F0214A222AEBD700D01200BB
:1001D800000E226E000E216E22BE08D0225012E1BF
:1001E800140E215CD8B00ED001D00CD09C0E206E1D
:1001F800D70EE82EFED7202EFCD700F0214A222A5F
:10020800EBD700D01200000E226E000E216E22BE27
:1002180008D0225012E1640E215CD8B00ED001D073
:100228000CD09C0E206ED70EE82EFED7202EFCD7C1
:1002380000F0214A222AEBD700D01200276A266A4A
:0C024800256A246A236A00019BEF00F085
:020000040020DA
:08000000FFFFFFFFFFFFFFFF00
:020000040030CA
:0E000000240E3E1EFF8181FF0FC00FE00F4057
:00000001FF
