:020000040000FA
:0400000007EF00F016
:0A000800048201ED04F072EF04F031
:10080000000006009EA007EF04F009EF04F028EFB7
:1008100004F09E901D0ECF6E4C0ECE6E022A630E1B
:10082000026415EF04F017EF04F028EF04F0026AF9
:100830008CA21DEF04F021EF04F0036A032A22EFDB
:1008400004F0036A03468C500318FD0B03188C6EEA
:10085000A1A22DEF04F02FEF04F04DEF04F0A192D0
:100860001D0EB36E4C0EB26E012A090E01643BEFF1
:1008700004F03DEF04F04DEF04F0016A8CA043EF6B
:1008800004F047EF04F0036A032A48EF04F0036A18
:100890008C500318FE0B03188C6E049211000F0E7F
:1008A000C16E070EB46E956A8C6ACD92300ECD1271
:1008B000CD8E1D0ECF6E4C0ECE6E9E909D80B19251
:1008C000300EB112B18E1D0EB36E4C0EB26EA192EF
:1008D000A082D08EF28EF28CCD80B1806EEF04F0CB
:1008E00007EF00F0026A016A0490049200014FEFE2
:0208F00004F012
:020000040020DA
:08000000FFFFFFFFFFFFFFFF00
:020000040030CA
:0E000000240E3E1EFF8181FF0FC00FE00F4057
:00000001FF
