:020000040000FA
:04000000FEEF3FF0E0
:100800000054656D702E204C4D33353A2000253351
:09081000752E257500432000003F
:10081A0092800E0EC16E960EC06E010EC26E956A61
:10082A009690969296943B0E1CEC05F0F4EC08F028
:10083A000009D8A423EF04F025EF04F01BEF04F01D
:10084A00010ED5EC08F007EC09F0000EB4EC08F044
:10085A00010E026E24EC08F0450EB4EC08F0DF0E2F
:10086A00E5EC08F0150E026E0250D8A4080E036ECD
:10087A0054EC07F09FEC08F001C04EF002C04FF0B4
:10088A004EC001F04FC002F0036A046A880E056E7A
:10089A00130E066E000E076E000E086E8DEC07F042
:1008AA0001C00DF002C00EF003C00FF004C010F03A
:1008BA00FF0E116E030E126E000E136E000E146EF2
:1008CA0031EC06F00DC050F00EC051F0F4EC08F017
:1008DA000009D8A473EF04F075EF04F06BEF04F08D
:1008EA00400EB4EC08F050C03BF051C03CF0440E4E
:1008FA003D6EF4EC07F0470EB4EC08F0000EE5ECA0
:10090A0008F00D0E436E2D0E426ED80EE82EFED75D
:10091A00422EFCD7432EFAD73FEF04F0FEEF3FF00A
:10092A001E50D96EDA6ADFCFF6FF080EF76E08009E
:10093A00F550250AD8A4A4EF04F0A6EF04F00AEFB4
:10094A0005F01E50D96EDA6ADF2A000E536E000EC9
:10095A00526E52C056F0546855681EC001F01FC04E
:10096A0002F083EC06F001C052F002C053F053BE0D
:10097A00C3EF04F0C1EF04F0C8EF04F05680526CE4
:10098A00531ED8B0532A1E50D96EDA6ADF50246E2D
:10099A0024C0F6FF080EF76E0800F550750AD8A4B1
:1009AA00D9EF04F0DBEF04F004EF05F01F50D96E25
:1009BA00DA6A020EDF26DF5CD96EDA6ADECF20F051
:1009CA00DECF21F01E50D96EDA6A2428DF6EF8EFE6
:1009DA0004F01DC015F020C016F021C017F082ECFB
:1009EA0005F01BEF05F024C0F6FF080EF76E0800AD
:1009FA00F550750AD8B4EEEF04F004EF05F01E5076
:100A0A00D96EDA6ADF2A1BEF05F01E50D96EDA6A50
:100A1A00DFCFF6FF080EF76E0800F550016E026A86
:100A2A001DC003F0DCEC05F004EF05F01200836A48
:100A3A0095689694969096928D948D908D9207ECE7
:100A4A0009F0956A380E836E8D820FEC09F08D924B
:100A5A00FFEC08F0380E836E8D820FEC09F08D9250
:100A6A00FFEC08F0380E836E8D820FEC09F08D9240
:100A7A009568F4EC08F00009D8A446EF05F048EFB1
:100A8A0005F03EEF05F0080ED5EC08F0F4EC08F09E
:100A9A000009D8A453EF05F055EF05F04BEF05F028
:100AAA000F0ED5EC08F0F4EC08F00009D8A460EFBA
:100ABA0005F062EF05F058EF05F0010ED5EC08F0ED
:100ACA000FEC09F0F4EC08F00009D8A46FEF05F078
:100ADA0071EF05F067EF05F0130ED5EC08F0F4ECB2
:100AEA0008F00009D8A47CEF05F07EEF05F074EF5A
:100AFA0005F0000EB4EC08F01200010E1A6E52C096
:100B0A0018F053C019F0000E1C6E1F0E1B6E000168
:100B1A007F6BB6EF05F01B06D8A01C061B50600FB2
:100B2A00D96EDA6A16C001F017C002F0000E046E20
:100B3A000A0E036EC2EC07F00150300FDF6E1A6A1C
:100B4A001806D8A0190616C001F017C002F0000E48
:100B5A00046E0A0E036E1AEC07F001C016F002C00A
:100B6A0017F01B501C10D8B4BDEF05F0BFEF05F00D
:100B7A00D0EF05F016501710D8A4C6EF05F0C8EF4D
:100B8A0005F090EF05F01A50D8A4CEEF05F0D0EF9B
:100B9A0005F090EF05F015C00EF01B50600F0F6EB8
:100BAA0018C010F019C011F0D5EC06F0120003506D
:100BBA00D8B4E2EF05F0E4EF05F0ECEF05F00350EE
:100BCA00D8A4EAEF05F0ECEF05F0F1EF05F00150DB
:100BDA0013EC09F030EF06F00350D96EDA6A090E09
:100BEA00D926DE50DE10D8B4FDEF05F0FFEF05F090
:100BFA0018EF06F00350D96EDA6A090ED9260350A7
:100C0A00E16EE26A020EE126DE50E65CE650800AF8
:100C1A00086EDE50800A0858D8B016EF06F018EFB2
:100C2A0006F030EF06F00350D96EDA6A020ED926C2
:100C3A00DF50046E0350D96EDA6ADF500424D96E8D
:100C4A00DA6A01C0DFFF0350D96EDA6A020ED926CA
:100C5A00DE2A000EDD221200000E156E000E166E40
:100C6A00000E176E000E186E115012101310141089
:100C7A00D8B442EF06F044EF06F07AEF06F0010E20
:100C8A00196E4EEF06F0D890113612361336143616
:100C9A00192A14AE53EF06F055EF06F048EF06F0A6
:100CAA00D890153616361736183611500D5C125074
:100CBA000E5813500F5814501058D8A067EF06F06A
:100CCA0069EF06F072EF06F011500D5E12500E5ADF
:100CDA0013500F5A1450105A1580D89014321332E8
:100CEA0012321132192E55EF06F015C00DF016C04A
:100CFA000EF017C00FF018C010F01200000E076EA9
:100D0A00000E066E0150D96EDA6ADFCFF6FF080EC2
:100D1A00F76E0800F5502A0AD8A496EF06F098EF65
:100D2A0006F0BDEF06F00150D96EDA6ADF2A0250EA
:100D3A00D96EDA6A020EDF26DF5CD96EDA6ADECF96
:100D4A0006F0DECF07F0D0EF06F00A0E0602F3CF68
:100D5A0003F0F4CF04F00702F350042605500324ED
:100D6A00066E000E0420076E0150D96EDA6ADF2A79
:100D7A000150D96EDA6ADFCFF6FF080EF76E080067
:100D8A00F550D00F056E090E0564CEEF06F0D0EFD0
:100D9A0006F0AAEF06F006C001F007C002F0120042
:100DAA0056A0DAEF06F0DCEF06F0E2EF06F00FC02D
:100DBA0009F00EC00AF067EC08F011BEE9EF06F080
:100DCA00E7EF06F0EDEF06F0000E116E000E106E62
:100DDA00000E146E000E136EFDEF06F0000E026E8A
:100DEA00200E016E0EC003F0DCEC05F0134A142A43
:100DFA001050135C1450800A126E1150800A125857
:100E0A00D8A00AEF07F00CEF07F0F3EF06F056B0A0
:100E1A0011EF07F013EF07F019EF07F00FC009F011
:100E2A000EC00AF067EC08F01200000E066E000E03
:100E3A00056E03500410D8B425EF07F027EF07F02A
:100E4A004FEF07F0010E076E2FEF07F0D890033629
:100E5A000436072A04AE34EF07F036EF07F02BEF1B
:100E6A0007F0D890053606360350015C0450025844
:100E7A00D8A042EF07F044EF07F049EF07F003501C
:100E8A00015E0450025A0580D89004320332072EBC
:100E9A0036EF07F005C001F006C002F0120074EF49
:100EAA0007F0F4EC08F00009D8A45EEF07F060EF51
:100EBA0007F056EF07F002C0F6FF03C0F7FFF86A23
:100ECA00070EF76403D00800F55005D0F6CFE1FF0E
:100EDA00F7CFE2FFE750E5EC08F0024A032A02C026
:100EEA00F6FF03C0F7FFF86A070EF76403D008009D
:100EFA00F55005D0F6CFE1FFF7CFE2FFE750000942
:100F0A00D8A48AEF07F08CEF07F056EF07F012002B
:100F1A00000E096E000E0A6E000E0B6E000E0C6EAD
:100F2A0001A09AEF07F09CEF07F0A4EF07F0055035
:100F3A00092606500A2207500B2208500C22D89084
:100F4A000536063607360836D8900432033202329E
:100F5A0001320150021003100410D8A4B7EF07F0B1
:100F6A00B9EF07F095EF07F009C001F00AC002F0E7
:100F7A000BC003F00CC004F0120003500410D8B4E4
:100F8A00C9EF07F0CBEF07F0EFEF07F0010E056EA0
:100F9A00D3EF07F0D89003360436052A04AED8EF0B
:100FAA0007F0DAEF07F0CFEF07F00350015C0450C7
:100FBA000258D8A0E3EF07F0E5EF07F0E9EF07F0F2
:100FCA000350015E0450025AD89004320332052EAF
:100FDA00DAEF07F001C001F002C002F012003BC0D4
:100FEA0001F03CC002F0000E046E0A0E036E1AEC09
:100FFA0007F001C03EF002C03FF03BC001F03CC028
:10100A0002F0000E046E0A0E036EC2EC07F001C075
:10101A0040F002C041F03DC029F00E0E2A6E3EC0DB
:10102A002BF03FC02CF040C02DF041C02EF085ECD3
:10103A0008F03DC002F0036A54EC07F0120039EFE1
:10104A0008F0F4EC08F00009D8A42EEF08F030EF0D
:10105A0008F026EF08F002C0F6FF080EF76E080047
:10106A00F550E5EC08F0022A02C0F6FF080EF76E0A
:10107A000800F5500009D8A445EF08F047EF08F03A
:10108A0026EF08F0120026C028F054EF08F025C019
:10109A001DF0280E1E6E27C01FF095EC04F028C024
:1010AA00F6FF080EF76E0800F5500009D8A460EFA5
:1010BA0008F062EF08F04CEF08F0000E266E000E02
:1010CA00256E1200000E0D6E000E0C6E76EF08F003
:1010DA000BC001F0026A0AC003F0DCEC05F00C4A0E
:1010EA000D2A09500C24D96EDA6ADF500B6E0B50A8
:1010FA00D8A482EF08F084EF08F06DEF08F0120030
:10110A002B0E2F6E29C030F0000E336E000E326E99
:10111A00000E3A6E000E396E300E256E2AC026F089
:10112A002F0E276E48EC08F029503224D96EDA6A5D
:10113A00DF6A1200500EE82EFED7C282C2B2A8EFB2
:10114A0008F0AAEF08F0A3EF08F0C450046E036A8F
:10115A00C3500324016E000E0420026E1200016EB9
:10116A00956A01508009836E8D948D900FEC09F079
:10117A008D820FEC09F08D920FEC09F09568120040
:10118A0000EE60F0200EEE6AE806FDE1566A556A46
:10119A00546A536A526A000EF86E00010DEF04F0A9
:1011AA00016E956A01C083FF8D948D900FEC09F052
:1011BA008D820FEC09F08D920FEC09F09568120000
:1011CA00016E956A01C083FF8D808D940FEC09F042
:1011DA008D820FEC09F08D928D90956812008D84A6
:1011EA008D900FEC09F08D820FEC09F08D928D94A1
:1011FA00000E12002F0E016EC00EE82EFED7012E31
:10120A00FCD712007D0E016EAC0EE82EFED7012E21
:0E121A00FCD71200280EE82EFED7120012009C
:047FFC00C5EF08F0D5
:020000040020DA
:08000000FFFFFFFFFFFFFFFF00
:020000040030CA
:0E000000240E3E1EFF8181FF0FC00FE00F4057
:00000001FF
