:040000000CEF00F011
:10000800FACF01F0FBCF02F0E9CF03F09BED05F04A
:040018005AEF07F0A4
:100800000001000A006400E8031027172530327544
:100810003A253032753A253032750054656D706F67
:100820003A2000001F0E296E000E2A6E17D1250EE9
:100830003118D8B409D01BC0D9FF1CC0DAFF31C0B1
:10084000DFFF1B4A1C2A0AD1000E306E000E2F6EED
:10085000000E2B6E05D02B841D4A1E2A01D00BD012
:100860001DC0F6FF1EC0F7FF0800F550300AD8B4CF
:10087000F2D701D0F5D71DC0F6FF1EC0F7FF080064
:10088000F5502CEC07F0D8A03AD0000E306E000ED8
:100890002F6E00D02FC00FF030C010F0000E126E7F
:1008A0000A0E116EF3EC06F00FC02FF010C030F0FE
:1008B000D00E256EFF0E266E1DC0F6FF1EC0F7FF80
:1008C0000800F550276E286A255027262650282232
:1008D00027502F26285030221D4A1E2A1DC0F6FF01
:1008E0001EC0F7FF0800F5502CEC07F0D8A007D089
:1008F000D1D705D0C1D0B2D0C00E2B1211D01DC09F
:10090000F6FF1EC0F7FF1D4A1E2A0800F5CF31F082
:100910003150000AD8B4B0D0750AD8B4EDD79ED003
:1009200029C0D9FF2AC0DAFFDECF2CF0DDCF2DF0B1
:10093000020E2926000E2A22010E316E050E3118F4
:10094000D8B416D001D014D03150020D010EF324CA
:10095000F66E080EF420F76E0900F5502C5C0900C5
:10096000F5502D58D8A004D001D002D0312AE6D7B6
:10097000800E31BE7F0E256E2F50315C3050800AC4
:100980002558D8B007D031502F5E000E31BEFF0E73
:10099000305A05D0000E306E000E2F6E00D02BA402
:1009A00015D02F503010D8B426D01BC0D9FF1CC092
:1009B000DAFF300EDF6E1B4A1C2A2F06D8A0300645
:1009C0002F503010D8B417D0F0D715D02F5030108A
:1009D000D8B411D01BC0D9FF1CC0DAFF200EDF6EC7
:1009E0001B4A1C2A2F06D8A030062F503010D8B42E
:1009F00002D0F0D700D031C02EF02AD02E50020DF8
:100A0000010EF324F66E080EF420F76E0900F5CF00
:100A100011F00A00F5CF12F02CC00FF02DC010F02D
:100A200047EC06F00FC016F010C017F0000E196E5C
:100A30000A0E186E75EC06F01650300F316E1BC0A2
:100A4000D9FF1CC0DAFF31C0DFFF1B4A1C2A00D0CF
:100A50002E062E28D8B402D0D1D700D01DC0F6FF64
:100A60001EC0F7FF1D4A1E2A0800F5CF31F0315095
:100A7000D8B402D0DCD600D01BC0D9FF1CC0DAFF2E
:100A8000000EDF6E00D012000F0EC16E000ECD6E94
:100A9000CD96CD92CD8ACD88000ECF6E000ECE6E53
:100AA000CD80080EBD6EBF68BE68000E956E969034
:100AB000969296943B0EF2EC05F000D04EEC07F0C7
:100AC0000009D8A4FBD7010E1AEC07F06DEC07F073
:100AD00000D04EEC07F00009D8A4FBD7000E07ECBD
:100AE00007F01B0E106E080E116EBEEC06F0939010
:100AF0009E949D84F28CF28E00D09BEC06F0000E4A
:100B0000346E000E336E34BE08D03450F6E1140E4D
:100B1000335CD8B0F2D701D0F0D79C0E326ED70E2E
:100B2000E82EFED7322EFCD700F0334A342AEBD71A
:100B3000E4D70CEF00F00600EACF04F0E1CF05F0B7
:100B4000E2CF06F0D9CF07F0DACF08F0F3CF09F003
:100B5000F4CF0AF0F6CF0BF0F7CF0CF0F8CF0DF092
:100B6000F5CF0EF09EA421D09E94352A0B0EF66E82
:100B7000080EF76E0900F550355CD8A016D0000EAF
:100B8000356E382A8A703B0E38640FD0000E386EEE
:100B9000372A3B0E376409D0000E376E362A170EFF
:100BA000366403D0000E366E00D00EC0F5FF0DC0C7
:100BB000F8FF0CC0F7FF0BC0F6FF0AC0F4FF09C036
:100BC000F3FF08C0DAFF07C0D9FF06C0E2FF05C087
:100BD000E1FF04C0EAFF03C0E9FF02C0FBFF01C060
:100BE000FAFF1100000E836E956896949690969287
:100BF0008D948D908D926DEC07F0000E956E380EF1
:100C0000836E8D8275EC07F08D9265EC07F0380EDF
:100C1000836E8D8275EC07F08D9265EC07F0380ECF
:100C2000836E8D8275EC07F08D92956800D04EEC46
:100C300007F00009D8A4FBD7080E1AEC07F000D083
:100C40004EEC07F00009D8A4FBD70F0E1AEC07F002
:100C500000D04EEC07F00009D8A4FBD7010E1AEC27
:100C600007F075EC07F000D04EEC07F00009D8A4AF
:100C7000FBD7130E1AEC07F000D04EEC07F000097A
:100C8000D8A4FBD7000E07EC07F000D01200000E2E
:100C9000146E000E136E11501210D8B421D0010E34
:100CA000156E05D0D89011361236152A00D012BE16
:100CB00002D0F8D700D0D8901336143611500F5CFC
:100CC00012501058D8A006D011500F5E1250105A72
:100CD000138000D0D89012321132152EECD700D0EC
:100CE00013C00FF014C010F0120018501910D8B42F
:100CF0001DD0010E1A6E05D0D890183619361A2A52
:100D000000D019BE02D0F8D700D01850165C195088
:100D10001758D8A005D01850165E1950175A00D091
:100D2000D890193218321A2EF0D700D016C016F00B
:100D300017C017F01200390E1B6E000E1C6E0C0E41
:100D40001D6E080E1E6E36C01FF0206A37C021F0DF
:100D5000226A38C023F0246A12EC04F000D04EEC72
:100D600007F00009D8A4FBD7070E07EC07F0390EEF
:100D7000106E000E116EDAEC06F0120011D000D0E9
:100D80004EEC07F00009D8A4FBD710C0F6FF11C045
:100D9000F7FF0800F5503DEC07F0104A112A00D08B
:100DA00010C0F6FF11C0F7FF0800F5500009D8A4E5
:100DB000E7D7120010D000D04EEC07F00009D8A4FD
:100DC000FBD710C0D9FF11C0DAFFDF503DEC07F0B0
:100DD000104A112A00D010C0D9FF11C0DAFFDF502D
:100DE000D8A4EAD712000F501102F3CF13F0F4CFBA
:100DF00014F00F501202F350142610501102F35049
:100E0000142613C00FF014C010F000D012000F6EA3
:100E1000000E956E0F508009836E8D948D9075EC49
:100E200007F08D8275EC07F08D9275EC07F09568F0
:100E300000D012000F6E000E956E0FC083FF8D94D0
:100E40008D9075EC07F08D8275EC07F08D9275EC46
:100E500007F0956800D01200116E000E106E3A0E69
:100E6000116006D02F0E116403D0010E106E00D059
:100E700010C00FF00F3000D012000F6E000E956EF4
:100E80000FC083FF8D808D9475EC07F08D8275EC1B
:100E900007F08D928D90956800D012008D848D9012
:100EA00075EC07F08D8275EC07F08D928D94000E35
:100EB00000D0120000EE35F00D0EEE6AE806FDE1FE
:100EC000000EF86E000144EF05F02F0E0F6EC00EFD
:100ED000E82EFED70F2EFCD712007D0E0F6EAC0E43
:100EE000E82EFED70F2EFCD71200280EE82EFED7D4
:020EF0001200EE
:020000040020DA
:08000000FFFFFFFFFFFFFFFF00
:020000040030CA
:0E000000240E3E1EFF8181FF0FC00FE00F4057
:00000001FF
