:020000040000FA
:04000000FEEF3FF0E0
:10080000003F065B4F666D7D077F6F777C395E79B1
:1008100071000F0EC16E070EB46EF19E956A929430
:10082000929A96909690935093508D848D8089845F
:10083000898A010EF66E0800F5CF8CFF000E056E5A
:10084000000E046E81B027EF04F029EF04F04AEFA8
:1008500004F005BE37EF04F0055007E10F0E045C0D
:10086000D8B035EF04F037EF04F04AEF04F0044A53
:10087000052A0450010F036E03C0F6FF0800F5CFF0
:100880008CFF81A046EF04F048EF04F041EF04F044
:1008900076EC04F081B24FEF04F051EF04F022EF58
:1008A00004F005BE5CEF04F0055008E10404D8A094
:1008B0005CEF04F05EEF04F022EF04F00406D8A031
:1008C00005060450010F036E03C0F6FF0800F5CFC4
:1008D0008CFF81A26EEF04F070EF04F069EF04F07A
:1008E00076EC04F022EF04F0FEEF3FF0070E026E0C
:1008F000170E016E6A0EE82EFED7012EFCD7022ECF
:10090000FAD700D01200000EF86E080EF76E000144
:0409100009EF04F0F7
:047FFC0083EF04F01B
:020000040020DA
:08000000FFFFFFFFFFFFFFFF00
:020000040030CA
:0E000000240E3E1EFF8181FF0FC00FE00F4057
:00000001FF
