:020000040000FA
:04000000FEEF3FF0E0
:1006000000080204010104020800000E146E000E2E
:10061000136E000E126E000E116E000E186E000E9C
:10062000176E1BEF03F0000E026E010E016E7DECE3
:1006300003F0134A142A82A020EF03F022EF03F004
:1006400013EF03F0000E0B6E000E0A6E38EF03F08E
:10065000000E026E020E016E7DEC03F01A0E096EA2
:10066000F80EE82EFED7092EFCD700D00A4A0B2A36
:1006700013500A5C0B50800A096E1450800A095806
:10068000D8A045EF03F047EF03F028EF03F052EF57
:1006900003F0000E026E020E016E7DEC03F01106F7
:1006A000D8A0120682A257EF03F059EF03F049EFEA
:1006B00003F011C00CF012C00DF00DBE62EF03F09C
:1006C00064EF03F066EF03F078EF03F0000E026EC4
:1006D000010E016E7DEC03F01A0E096EF80EE82E85
:1006E000FED7092EFCD700D00C4A0D2A5DEF03F08F
:1006F000000E186E000E176E120001040210D8A42E
:1007000084EF03F086EF03F0AFEF03F0000E066E08
:10071000000E056E0550050F036E03C0F6FF0800BE
:10072000F5CF04F08A50F00B04108A6E820E036E2F
:10073000DE0EE82EFED7032EFCD7054A062A06BE9B
:10074000ABEF03F0065009E1040E055CD8A0ABEF57
:1007500003F0ADEF03F08AEF03F0E4EF03F0020ED5
:1007600001180210D8A4B7EF03F0B9EF03F0E2EFDD
:1007700003F0000E086E000E076E0750010F036EA7
:1007800003C0F6FF0800F5CF04F08A50F00B041008
:100790008A6E820E036EDE0EE82EFED7032EFCD785
:1007A000074A082A08BEDEEF03F0085009E1040EEC
:1007B000075CD8A0DEEF03F0E0EF03F0BDEF03F03D
:1007C000E4EF03F0F00E8A1612000F0EC16EF00E69
:1007D0009316030E9412030E951205EC03F0340EDB
:1007E0000E6EF20EE82EFED70E2EFCD74BEC04F068
:1007F00001C00FF002C010F00F041010D8A403EFD6
:1008000004F005EF04F01EEF04F01350175C1850CD
:10081000800A0E6E1450800A0E58D8B012EF04F001
:1008200014EF04F01EEF04F0000E026E010E016ED4
:100830007DEC03F0174A182A40EF04F0020E0F185F
:100840001010D8A426EF04F028EF04F040EF04F0D5
:100850001750115C1250800A0E6E1850800A0E5804
:10086000D8B035EF04F037EF04F040EF04F0000E9D
:10087000026E020E016E7DEC03F01706D8A018067A
:10088000340E0E6EF20EE82EFED70E2EFCD7EFEFD2
:1008900003F0FEEF3FF083B250EF04F053EF04F0AB
:1008A000010E54EF04F0000E036E83B05AEF04F013
:1008B0005DEF04F0010E5EEF04F0000E031AD8B4F1
:1008C00064EF04F066EF04F079EF04F083B06BEFAF
:1008D00004F06DEF04F073EF04F0000E026E010EF1
:1008E000016E7DEF04F0000E026E020E016E7DEFD0
:1008F00004F0000E026E000E016E120000EE11F008
:10090000080EEE6AE806FDE1000EF86E060EF76EC0
:060910000001E5EF03F019
:047FFC007EEF04F020
:020000040020DA
:08000000FFFFFFFFFFFFFFFF00
:020000040030CA
:0E000000FF081F1EFF8180FF0FC00FE00F40A2
:00000001FF
