:020000040000FA
:1000000002EF00F0720ED36E0F0EC16E946A956A05
:100010009380938293849386F19E826A8B6A836A2B
:10002000206A216A256A276ADDEC00F02550D8B4E1
:1000300021EF00F0010E2518D8B435EF00F03FEFA6
:1000400000F08B9EB8EC00F081B029EF00F069EC75
:1000500000F081B22EEF00F07EEC00F081B433EFBF
:1000600000F095EC00F016EF00F08B9EDDEC00F058
:1000700081B63DEF00F0A7EC00F016EF00F0212A6A
:10008000B8EC00F021502018D8A45CEF00F08B8E63
:10009000FF0E266EFF0E276E0000262E4CEF00F09E
:1000A000272E4CEF00F08B9E3F0E8B6E8B9E3F0EEB
:1000B000836E256A16EF00F0FF0E266E640E276E23
:1000C0000000262E60EF00F0272E60EF00F016EF04
:1000D00000F0500E266E0000262E6BEF00F081B06F
:1000E00012002050010F206E20500008D8B4206A62
:1000F000B8EC00F081B012007AEF00F0500E266EDE
:100100000000262E80EF00F081B212002050D8B4FB
:100110008DEF00F020068FEF00F0990E206EB8EC06
:1001200000F081B2120091EF00F0500E266E000038
:10013000262E97EF00F081B41200216A8B9EDDEC31
:1001400000F0010E256E81B41200A3EF00F0500EF6
:10015000266E0000262EA9EF00F081B61200216A5B
:10016000B8EC00F0020E256E81B61200B4EF00F07C
:100170002550020AD8B4C0EF00F02050C1EF00F0C3
:100180002150226E236A22500908D8B0CEEF00F029
:100190002250F60F226E232AC3EF00F02250E3EC28
:1001A00000F0276E7F0B276E8B50800B27108B6E15
:1001B0002350E3EC00F0836E12003F0E8B6E8B9E9B
:1001C0003F0E836E1200246E2450D8B43F0C24508E
:1001D000010AD8B4060C2450020AD8B45B0C24508F
:1001E000030AD8B44F0C2450040AD8B4660C245027
:1001F000050AD8B46D0C2450060AD8B47D0C2450DE
:10020000070AD8B4070C2450080AD8B47F0C24502D
:08021000090AD8B46F0C3F0C81
:020218000000E4
:020000040030CA
:0100010008F6
:010003001EDE
:0100050001F9
:010006008178
:00000001FF
